:020000040800F2
:100000000011002009010008110100081301000877
:100010001501000817010008190100080000000080
:100020000000000000000000000000001B010008AC
:100030001D010008000000001F0100083D18000815
:100040002301000823010008230100082301000800
:1000500023010008230100082301000823010008F0
:10006000D50D000823010008230100082301000822
:100070001D0B000823010008350B00085D0B00086C
:10008000750B00088D0B00082301000823010008F0
:1000900023010008230100082301000823010008B0
:1000A00023010008230100082301000823010008A0
:1000B000230100082301000823010008C9100008DB
:1000C000B1100008F9100008E1100008351600080A
:1000D0004D160008311C0008491C0008611C00086E
:1000E000230100082301000823010008DFF814D0D1
:1000F00000F000FD00F03EF800480047BD6C00082D
:1001000000F0EAFB0011002006488047064800473F
:10011000FEE7FEE7FEE7FEE7FEE7FEE7FEE7FEE7B7
:10012000FEE7FEE75D180008ED00000840EA010365
:100130009B0703D009E008C9121F08C0042AFAD29D
:1001400003E011F8013B00F8013B521EF9D2704761
:10015000D2B201E000F8012B491EFBD27047002209
:10016000F6E710B513460A4604461946FFF7F0FFB6
:10017000204610BD70B5054C054D03E020682044B5
:100180008047241DAC42F9D170BD000048750008BD
:10019000507500082DE9F041074615460E4610201F
:1001A00006F0DAFE04000AD06760C4E9026500F0D8
:1001B0008FFB0168216004600020BDE8F081012010
:1001C000FBE7F0B480EA0102D40F4200B2EB410F2A
:1001D00002D20246084611464A0042D0C30DDDB2A3
:1001E000C1F3C752AD1A202D35DAC1F3160141F41F
:1001F000000204B15242C5F1200602FA06F12A417A
:100200001044B3EBD05F23D0C4B1012DA0EBC35099
:1002100009DCF0BC4FF0004202EAC352DBB200F549
:10022000000000F083BB400000F1807000EBC35081
:10023000A0F1807040EAD170490009E0490841EA24
:10024000C071A0EBC35000F50000400800EBC350A4
:10025000F0BC00F062BB6142012202EB4101001BD5
:10026000F6E7F0BC704781F00041AAE780F000405B
:10027000A7E780EA010210B502F00043400022D057
:100280004A001FD0010E01EB1261C0F35600C2F309
:10029000560240F4000042F40002A0FB02200004D9
:1002A0007F39140400D0401C50EA124001D44000B1
:1002B000491EC2B20C0604EBD010401C4008802A34
:1002C00002D003E0002010BD20F00100002900DA78
:1002D0000020184310BD30B480EA010202F000454E
:1002E00030F0004221F0004013D090B1C30DD40D86
:1002F000C2F31601C0F31600E41A41F4000140F401
:1003000000027D34914201D3641C00E04900002CBE
:1003100002DA30BC002070474FF400000023914205
:1003200001D3891A034340084FEA4101F7D151B183
:10033000914202D14FF0004105E002D24FF001019D
:1003400001E06FF0010103EBC450284430BC00F021
:10035000E4BA2DE9FE4F804681EA0300C00F0C4647
:10036000009021F0004123F00045B8EB0200A941C4
:1003700005D24046214690461C460B46024623F0D5
:100380000040104347D0270DC7F30A00C3F30A51BA
:100390000290401A019040286BDAC3F3130040F436
:1003A000801B0098924620B10023D2EB030A63EB36
:1003B0000B0B01985946C0F14002504600F056FA26
:1003C00006460D4650465946019A00F06EFA10EB6B
:1003D00008006141002487EA115284EAE7731A4356
:1003E00040D0009A62B3019A012A4FEA075215DC05
:1003F000001B61EB02014FF0004202EA0752CDE917
:100400000042001C41F5801132462B4600F024FBCF
:1004100003B0BDE8F08F40462146F9E7001B61EBD1
:100420000201001C41F5801300185B412018A2F561
:10043000001747EB030140EAD570B6196D4111E092
:100440006D084FEA360645EAC0754FEA0752001BB1
:1004500061EB0201001C41F5801149084FEA3000B0
:100460000019514132462B4603B0BDE8F04F00F071
:10047000E4BA0098012240000023D0EB020263EBB3
:10048000E073009821464FEAE074B8EB000061EB9E
:100490000401E9E783F000435BE781F0004158E79E
:1004A0002DE9FE4F81EA030404F0004421F00041ED
:1004B00000944FF0000B23F0004350EA01045ED09B
:1004C00052EA03045BD0C3F30A54C1F30A552C4427
:1004D000A4F2F3340194A0FB0254C1F3130141F4DC
:1004E0008011C3F3130343F4801301FB024400FBA8
:1004F000034E840A970A44EA815447EA8357A4FBCF
:10050000076802958D0A05FB07854FEA932C04FBCB
:100510000C542705029D4FEA065847EA1637B5EBFB
:1005200008056EEB070C870E920E47EA811742EA28
:100530008312A7FB0201B6EB0B0164EB00042B0D49
:1005400043EA0C335E1844EB1C50DA465146E7FB95
:100550000201C5F313044FEA0B3343EA14534FEA85
:100560000432019C43EA0603A4F10C040294009CAB
:10057000CDE900B400F070FA03B0BDE8F08F0020C0
:100580000146F9E72DE9F04D81EA030404F0004B40
:1005900021F0004514464FF0000A23F0004150EAD4
:1005A000050220D054EA01021DD0C5F30A570246C5
:1005B000C5F31303C1F31300C1F30A5640F48015C9
:1005C00043F48013A7EB0608101BD64608F2FD384B
:1005D00073EB050002D308F1010801E092185B41BA
:1005E000B8F1000F03DA00200146BDE8F08D0020CD
:1005F0004FF48011064684460EE0171B73EB050787
:1006000005D3121B63EB050306434CEA010C4908B2
:100610004FEA300092185B4150EA0107EDD152EAEF
:10062000030012D082EA040083EA0501084305D0E2
:10063000101BAB4106D20122002306E000224FF03E
:10064000004302E06FF0010253101AEB06004CEB7E
:10065000085110EB0A0041EB0B01BDE8F04D00F032
:10066000ECB9C10F80EAE0700844CA079623002164
:1006700000F05CB996230022114600F057B90EB580
:10068000C10F80EAE0700844CA07002140F23343FA
:100690008DE80E000A460B4600F0DEF903B000BDFF
:1006A0000EB540F2334102910021CDE900110A4616
:1006B0000B4600F0D1F903B000BD00F0004220F07D
:1006C0000040C10DC0F3160040F400007F2901DA9C
:1006D00000207047962903DCC1F19601C84001E073
:1006E00096398840002AF4D04042704720F00040FC
:1006F000C10DC0F3160040F400007F2901DA00208C
:100700007047962903DCC1F19601C84070479639BD
:100710008840704770B5C1F30A5201F000450024CB
:10072000C1F3130140F2FF3341F480119A4201DA20
:10073000002070BD40F233439A42A2F2334203DC00
:10074000524200F0A2F800E090402C43F1D0404229
:1007500070BDC1F30A5210B5C1F3130140F2FF336B
:1007600041F480119A4201DA002010BD40F2334377
:100770009A42A2F2334203DC524200F086F810BDE6
:10078000904010BD00F0004230F000400AD0C10D92
:1007900001F56071C0F3160042EA0151C20840073A
:1007A00011437047002001467047000030B5041E19
:1007B00071F1000404DB4FF00044404264EB01019E
:1007C000141E73F1000405DB1C464FF00043524237
:1007D00063EB04038B4208BF824230BD30B5041E78
:1007E00071F1000404DB4FF00044404264EB01016E
:1007F000141E73F1000405DB1C464FF00043524207
:1008000063EB0403994208BF904230BD01F00043FE
:1008100030B421F0004150EA010206D00A0DA2F5E1
:100820006072C1F31301002A02DC30BC0020704763
:10083000440F44EAC104C100E01830BC00EBC250D0
:1008400000F06BB8002801DBC0F10040002901DB9B
:10085000C1F1004181427047002801DBC0F1004036
:10086000002901DBC1F1004188427047202A04DBE6
:10087000203A00FA02F1002070479140C2F12003B3
:1008800020FA03F3194390407047202A04DB203AF2
:1008900021FA02F00021704721FA02F3D040C2F1A0
:1008A00020029140084319467047202A06DBCB17E7
:1008B000203A41FA02F043EAE07306E041FA02F31B
:1008C000D040C2F120029140084319467047000011
:1008D00000487047BC0000202DE9F0410646FFF7B4
:1008E000F7FF8046454613E016B1E068B0420ED1EE
:1008F00020682860D4E90101D8F8007088472046B4
:1009000006F0B4F9D8F80000B842EBD100E0254673
:100910002C68002CE8D1BDE8F0810029A8BF704701
:10092000401C490008BF20F00100704710B4B0FA25
:1009300080FC00FA0CF050EA010404BF10BC7047C0
:1009400049B1CCF1200421FA04F411FA0CF118BFDA
:10095000012121430843A3EB0C01CB1D4FEA0061A9
:100960004FEA102042BF002010BC704700EBC3507C
:1009700010440029A4BF10BC7047401C490008BFA8
:1009800020F0010010BC7047420005D0C0F3C752F0
:100990005242914201DC0020704700EBC150704789
:1009A000F0B4002802DCF0BC00207047C0F3C7514F
:1009B000C0F3160040F40000CA0701D14000491EF0
:1009C0003F2202EB6105002211464FF4000626FA91
:1009D00001F31344D418844201D8001B1A46400086
:1009E000491C1729F3DD5100814202D24FF0FF313B
:1009F00000E0002102EBC550F0BCFFF78EBF10B540
:100A000041000CD0C0F3C751962908DC7E2909DCCF
:100A100006DB410204D000F0004040F07E5010BDE3
:100A2000002010BDC1F19604C4F1200100FA01F1CB
:100A3000E040FFF772FFA04010BD10B5141E73F127
:100A4000000408DA401C41F1000192185B411A438E
:100A500001D120F0010010BD2DE9F04D92469B46DA
:100A600011B1B1FA81F202E0B0FA80F22032904680
:100A7000FFF7FCFE04460F4640EA0A0041EA0B017C
:100A800053465A46084313D0114653EA010019D081
:100A9000C8F140025046FFF7F8FE05460E465046A4
:100AA00059464246FFF7E2FE084305D0012004E024
:100AB00020463946BDE8F08D0020054346EAE07641
:100AC0002C4337430A986305E40AA0EB0800002290
:100AD000FD0A44EA47540A3002D500200146E9E7FE
:100AE000010510196941DDE9084500196941BDE8B2
:100AF000F04DA2E7064C074D06E0E06840F0010328
:100B000094E8070098471034AC42F6D3FFF7F2FAA6
:100B100028750008487500087047000010B50448A3
:100B2000006818B10248006804F06EF910BD0000BA
:100B30001000002010B50748006818B1054800688B
:100B400004F062F90448006818B10348006802F034
:100B500081FD10BD080000201800002010B50448D9
:100B6000006818B10248006802F03EFD10BD0000A8
:100B70001800002010B50448006818B10248006849
:100B800002F068FD10BD00001400002010B50748F9
:100B9000006818B10548006804F036F90448006898
:100BA00018B10348006802F01FFD10BD0C000020C2
:100BB0001400002000F0805111B10349086001E0E9
:100BC00002494860704700000404024000000240EF
:100BD00000F0805111B10349086001E0024948600A
:100BE00070470000040402400000024021B1026886
:100BF00042F00102026004E002684FF6FE731A4000
:100C00000260704701684FF6FE72114001600021DA
:100C1000016041608160C1604B49884208D14A4906
:100C20000839496841F00F01474A083A51608AE0A3
:100C300045491431884208D143490839496841F08F
:100C4000F001414A083A51607DE03F49283188422D
:100C500008D13D490839496841F470613A4A083A77
:100C6000516070E038493C31884208D13649083932
:100C7000496841F47041344A083A516063E03249AE
:100C80005031884208D130490839496841F470210F
:100C90002D4A083A516056E02B496431884208D108
:100CA00029490839496841F47001274A083A5160D6
:100CB00049E025497831884208D1234908394968F3
:100CC00041F07061204A083A51603CE01F49884277
:100CD00006D1011F096841F00F01021F116032E0C7
:100CE0001A491431884208D11849091F096841F08E
:100CF000F001164A121F116025E01449283188427C
:100D000008D11249091F096841F470610F4A121F86
:100D1000116018E00D493C31884208D10B49091F88
:100D2000096841F47041094A121F11600BE007493C
:100D30005031884207D10549091F096841F47021E3
:100D4000024A121F11607047080002400804024066
:100D50000146486880B2704701460020002201F039
:100D6000805313B1054B1A6801E0054B1A6802EA7B
:100D700001030BB1012000E0002070470004024095
:100D8000000002401AB103680B43036002E00368ED
:100D90008B430360704710B50022026847F6F0737A
:100DA0009A430C6A8B6823430C6923434C692343A1
:100DB0008C692343CC6923434C6A23438C6A2343C5
:100DC0001A430260CB6843600B6883604B68C36062
:100DD00010BD000010B50248006805F085F910BD8F
:100DE00024000020014908607047000014040140FD
:100DF000014600200022074B1B6803EA0102054B55
:100E000014331B680B4013B10AB1012000E000202D
:100E10007047000000040140002123498279002A24
:100E20003AD00A46126803689A430B461A600A1DB4
:100E3000126803689A430B1D1A60027911440A680C
:100E400003681A430A60184A0832126803689A4312
:100E5000154B08331A601A1D126803689A43124B27
:100E60000C331A604279102A0ED11A1F12680368D7
:100E70001A430D4B08331A601A1D126803681A438F
:100E8000094B0C331A600DE00749427911440A6896
:100E900003681A430A6005E0027911440A6803688E
:100EA0009A430A60704700000004014030B50022F8
:100EB0008B071C0F0F2303FA04F20B4B8C1053F813
:100EC00024309343084C8D1044F8253023468C1071
:100ED00053F824308C07240F00FA04F42343024C07
:100EE0008D1044F8253030BD080001402DE9F04157
:100EF000024600250026002000230024002791F848
:100F000003C00CF00F0591F803C00CF0100CBCF1FD
:100F1000000F03D091F802C04CEA050591F800C01B
:100F2000BCF1000F31D0146800202BE04FF0010C11
:100F30000CFA00F3B1F800C00CEA03069E4220D17F
:100F400083004FF00F0C0CFA03F7BC4305FA03FCC7
:100F50004CEA040491F803C0BCF1280F06D14FF00D
:100F6000010C0CFA00FCC2F814C00AE091F803C0AE
:100F7000BCF1480F05D14FF0010C0CFA00FCC2F88F
:100F800010C0401C0828D1D31460B1F800C0BCF1D7
:100F9000FF0F34DD546800202EE000F1080C4FF004
:100FA000010808FA0CF3B1F800C00CEA03069E42EF
:100FB00021D183004FF00F0C0CFA03F7BC4305FA64
:100FC00003FC4CEA040491F803C0BCF1280F05D1DE
:100FD00000F1080C08FA0CF8C2F8148091F803C06C
:100FE000BCF1480F07D100F1080C4FF0010808FAD6
:100FF0000CF8C2F81080401C0828CED35460BDE81D
:10100000F0810000F0B50A460023002400210025ED
:1010100000F00046B6F1004F02D11D4EF16901E02B
:101020001B4E7168C0F3034583B200F44016B6F559
:10103000401F08D121F07061154E766826F0706669
:10104000134F7E6012E000F48016B6F5801F06D1C3
:10105000032606FA05F4A14341F0706106E0460D4F
:10106000360103FA06F6B14341F0706122B1460D34
:10107000360103FA06F6314300F00046B6F1004FA0
:1010800002D1034EF16101E0014E7160F0BD00003C
:10109000000001400246002093680B400BB1012084
:1010A00000E0002070474161704701617047000017
:1010B00010B50448006818B10248006802F0D4FA7C
:1010C00010BD00001400002010B50448006818B1DD
:1010D0000248006802F0F6FA10BD0000140000207B
:1010E00010B50448006818B10248006802F0BCFA64
:1010F00010BD00001800002010B50448006818B1A9
:101100000248006802F0DEFA10BD0000180000205E
:1011100021B1028842F48062028004E002884FF626
:10112000FF331A400280704721B1028842F4807276
:10113000028004E002884FF6FF631A400280704785
:1011400021B1028842F40072028004E002884FF666
:10115000FF531A40028070470CB50246002000235E
:101160000193009300920B0F019321F07F41019BAB
:101170001BB1009B1433009303E0090C009B183350
:101180000093009B1B680B400BB1012000E0002086
:101190000CBD10B501460020002300228B8A0A8B6B
:1011A000120443EA020424F07F4010BD2DE9F0430D
:1011B00085B004460D460026B1460427DFF8CC80F2
:1011C000A6884FF6C0700640684600F01DF9DDF8AD
:1011D00008802F48B8FBF0F01FFA80F946EA0906AC
:1011E000A68020884FF6FE710840208000262949FD
:1011F000286888420CD828684000B8FBF0F087B215
:10120000042F00DA04273E4309F10100208427E07F
:10121000E8884BF6FF71884206D1286800EB400051
:10122000B8FBF0F087B209E0286800EBC00101EBE1
:101230000010B8FBF0F087B247F48047C7F30B000B
:1012400008B947F0010747F4004006434FF4967091
:1012500009FB00F04FF47A7190FBF1F0401C208400
:10126000A683208840F00100208026884FF6F530C4
:101270000640A8886989084306432680A8892989E9
:101280000843208105B0BDE8F083000000127A0019
:1012900040420F00A08601000146088AC0B2704794
:1012A00012B141F0010102E04FF6FE7319400182D4
:1012B000704701827047000070B5002100230F22A3
:1012C000C47804B3154C246804F4E064C4F5E06405
:1012D000210AC1F10403CA40447804FA03F1847876
:1012E0001440214309010E4C0678A155047804F0FE
:1012F0001F050124AC4005786D11AD0005F1E02516
:10130000C5F8004109E0047804F01F050124AC4051
:10131000044D0678761145F8264070BD0CED00E0CE
:1013200000E400E080E100E002490143024A11606C
:10133000704700000000FA050CED00E029B1064AF4
:1013400052690243044B5A6104E0034A52698243E2
:10135000014B5A61704700000010024029B1064A53
:10136000D2690243044BDA6104E0034AD269824342
:10137000014BDA61704700000010024029B1064AB3
:1013800012690243044B1A6104E0034A1269824362
:10139000014B1A61704700000010024029B1064A53
:1013A00092690243044B9A6104E0034A92698243C2
:1013B000014B9A6170470000001002400F4800681E
:1013C00040F001000D490860084640680C4908409B
:1013D0000A494860084600680A4908400749086009
:1013E0000846006820F4802008600846406820F421
:1013F000FE0048604FF41F008860704700100240F4
:101400000000FFF8FFFFF6FE30B5002100220024A7
:1014100000232D4D6D6805F00C0121B1042905D084
:10142000082923D105E0294D056022E0274D0560FC
:101430001FE0254D6D6805F47012234D6D6805F4AD
:101440008034022505EB92421CB9214D55430560BD
:101450000BE01D4D6D6805F400351DB11C4D554365
:10146000056002E0194D5543056002E0174D056027
:1014700000BF00BF144D6D6805F0F0010909154D5E
:101480006B5C0568DD4045600F4D6D6805F4E061FB
:10149000090A104D6B5C4568DD4085600A4D6D683A
:1014A00005F46051C90A0B4D6B5C4568DD40C560B1
:1014B000054D6D6805F44041890B074D6B5CC568AF
:1014C000B5FBF3F5056130BD0010024000127A0053
:1014D00000093D00A4000020B400002010B5014622
:1014E0000022002300204A11012A02D1094C23685E
:1014F00006E0022A02D1074C236A01E0054C636A28
:1015000001F01F02012494401C400CB1012000E0B6
:10151000002010BD001002400248406800F00C009E
:10152000704700000010024001460020034A506846
:1015300020F0F000084350607047000000100240A7
:101540001149096821F480310F4A11601146096878
:1015500021F480211160B0F5803F03D0B0F5802FD9
:101560000ED106E00849096841F48031064A11604D
:1015700007E00549096841F4A021034A116000E031
:1015800000BF00BF7047000000100240014600206D
:10159000034A506820F4E060084350607047000040
:1015A0000010024001460020034A506820F46050B9
:1015B00040EAC100506070470010024001490866CF
:1015C000704700000000424202460020044B586869
:1015D00020F47C1042EA01031843014B5860704725
:1015E0000010024001460020034A506820F003002A
:1015F00008435060704700000010024038B50020DA
:1016000000900024002500BF3120FFF767FF05464A
:101610000098401C00900098B0F5A06F01D0002DFC
:10162000F2D03120FFF75AFF08B1012400E0002476
:10163000204638BD10B50448006818B1024800685B
:1016400002F0CCFF10BD00001C00002010B50448C3
:10165000006818B10248006802F0C0FF10BD000029
:101660002000002021B1028842F04002028004E004
:1016700002884FF6BF731A4002807047CA43028146
:10168000704710B5002201F00F040123A3409AB265
:10169000D343038110BD1AB183880B43838002E0DA
:1016A00083888B43838070470246002013890B4058
:1016B0000BB1012000E000207047F0B50246002089
:1016C00000240023002501F00F070126BE40B4B21C
:1016D0000B1101269E40B3B2968806EA03051689CF
:1016E000264016B10DB1012000E00020F0BD30B55C
:1016F000002400230C110125A540ABB21AB1858846
:101700001D43858002E085889D43858030BD01466C
:10171000888970478181704710B50022028802F4E1
:1017200041520B884C8823438C882343CC88234325
:101730000C8923434C8923438C892343CC8923433D
:101740001A430280838B4FF2FF74234083830B8AFA
:10175000038210BD10B500F001F810BD0CB50020DB
:10176000019000903348006840F4803031490860AF
:1017700000BF3048006800F4003000900198401C21
:101780000190009818B90198B0F5A06FF1D12948DF
:10179000006800F4003010B10120009001E000204A
:1017A00000900098012843D12348006840F01000C1
:1017B000214908600846006820F0030008600846D8
:1017C000006840F0020008601A4840681949486003
:1017D0000846406848600846406840F480604860B9
:1017E0000846406820F47C1048600846406840F491
:1017F000E81048600846006840F08070086000BF4C
:101800000C48006800F000700028F9D009484068D2
:1018100020F00300074948600846406840F0020095
:10182000486000BF0348406800F00C000828F9D168
:101830000CBD0000001002400020024010B5044A18
:10184000044B054903C9FEF784FD034A03C210BDDA
:10185000CDCCCCCCCCCCFC3F4000002010B5134804
:10186000006840F0010011490860084640681049CE
:1018700008400E494860084600680E4908400B4978
:1018800008600846006820F4802008600846406828
:1018900020F4FE0048604FF41F008860FFF75AFFF5
:1018A0004FF000600449086010BD000000100240C5
:1018B0000000FFF8FFFFF6FE08ED00E021B102880E
:1018C00042F00102028004E002884FF6FE731A40E3
:1018D0000280704770B5002400220023058C4FF66B
:1018E000FE7635400584028C8388048B4FF68F7515
:1018F0002C40B51E2C400D882C43751E2A400D89A6
:101900002A434D882A43144DA8420BD0134DA842B8
:1019100008D0134DA84205D0124DA84202D0124D56
:10192000A84213D14FF6F7752A404D892A434FF646
:10193000FB752A408D882A434FF6FF652B404FF6F2
:10194000FF552B408D892B43CD892B438380048306
:10195000CD888586028470BD002C01400034014092
:101960000040014000440140004801400A46002177
:10197000018B4FF6F7731940114301837047000044
:1019800070B5002400220023058C4FF6EF76354019
:101990000584028C8388048B48F6FF752C404FF633
:1019A000FF452C400D884FF6FF7606EA05252C43AF
:1019B0004FF6DF752A400D8906EA05152A434D8842
:1019C00006EA05152A43154DA84202D0144DA84237
:1019D0001DD14FF67F752A404D894FF6FF7606EAF6
:1019E00005152A434FF6BF752A408D8806EA05156E
:1019F0002A434FF6FF352B404FF2FF752B408D8960
:101A000006EA85052B43CD8906EA85052B438380AD
:101A10000483CD880587028470BD0000002C01403E
:101A2000003401400A460021018B4FF2FF73194038
:101A30004FF6FF7303EA0223194301837047000046
:101A400070B5002400220023058C4FF6FF66354058
:101A50000584028C8388848B4FF68F752C404FF65B
:101A6000FC752C400D882C434FF6FF552A400D89FC
:101A70004FF6FF7606EA05252A434D8806EA052536
:101A80002A43154DA84202D0144DA8421DD14FF251
:101A9000FF752A404D894FF6FF7606EA05252A4351
:101AA0004FF6FF352A408D8806EA05252A434EF673
:101AB000FF752B404DF6FF752B408D8906EA051505
:101AC0002B43CD8906EA05152B4383808483CD887B
:101AD0008587028470BD0000002C01400034014065
:101AE0000A460021818B4FF6F77319401143818319
:101AF0007047000070B5002200230024058C4EF6CC
:101B0000FF7635400584038C8488828B48F6FF7508
:101B10002A404FF6FF452A400D884FF6FF7606EA29
:101B200005252A434DF6FF752B400D8906EA05353C
:101B30002B434D8806EA05352B430B4DA84202D0B6
:101B40000A4DA84208D14BF6FF752C408D894FF6FF
:101B5000FF7606EA85152C4384808283CD88A0F821
:101B60004050038470BD0000002C0140003401404F
:101B70000A460021818B4FF2FF7319404FF6FF7325
:101B800003EA022319438183704700000022028880
:101B90001D4B98420ED01D4B98420BD0B0F1804F98
:101BA00008D01B4B984205D01A4B984202D01A4BD2
:101BB000984204D14FF68F731A404B881A43174B43
:101BC000984207D0164B984204D04FF6FF431A4074
:101BD000CB881A4302808B8883850B8803850A4B48
:101BE00098420BD0094B984208D00E4B984205D032
:101BF0000D4B984202D00D4B984201D10B7A0386CF
:101C00000123838270470000002C01400034014012
:101C10000004004000080040000C0040001000409C
:101C200000140040004001400044014000480140D1
:101C300010B50448006818B10248006803F078F84D
:101C400010BD00000800002010B50448006818B15D
:101C50000248006803F06CF810BD00000C00002082
:101C600010B50448006818B10248006803F060F835
:101C700010BD00001000002010B50022002340F627
:101C80006A14A14200D100BF0A1201249440A3B2F9
:101C9000DC43048010BD21B1828942F4005282816C
:101CA00004E082894DF6FF731A40828170471AB1B1
:101CB000838A0B43838202E0838A8B43838270474B
:101CC00002460020B1F5007F00D100BF13880B4011
:101CD0000BB1012000E00020704770B502460024DF
:101CE00000230025002040F66A16B14200D100BF53
:101CF000C1F3421501F01F03012606FA03F3012D7B
:101D000002D19689334006E0022D02D1168A334073
:101D100001E0968A33400C12012606FA04F4168874
:101D2000344013B10CB1012000E0002070BDF0B5CB
:101D30000346002400260025002040F66A17B94219
:101D400000D100BF1846C1F3421401F01F0601275D
:101D500007FA06F5012C01D10C3004E0022C01D168
:101D6000103000E014301AB107682F43076002E01A
:101D70000768AF430760F0BD2DE9F04786B0054620
:101D80000E460024A24600BFA1460027B08900B13C
:101D900000BF2F462C8A4CF6FF700440F0880443A5
:101DA0002C82AC894EF6F3100440B0883189084388
:101DB000718908430443AC81AC8A4FF6FF4004406C
:101DC000B0890443AC8201A8FFF71EFB1F4887427D
:101DD00002D1DDF810A001E0DDF80CA0A88900F424
:101DE000004040B10AEBCA0000EB0A10316849001C
:101DF000B0FBF1F807E00AEBCA0000EB0A1031680B
:101E00008900B0FBF1F86420B8FBF0F00401200970
:101E1000642101FB1089A88900F4004040B1322000
:101E200000EBC900B0FBF1F000F00700044308E04C
:101E3000322000EB09106421B0FBF1F000F00F003C
:101E400004432C8106B0BDE8F08700000038014053
:101E500001468888C0F308007047C1F308028280F9
:101E6000704710B5FFF7AAFA4FF48030FFF768FB10
:101E7000FFF7C4FB012820D10020FFF755FB00200D
:101E8000FFF790FB4FF48060FFF780FB4FF4E01109
:101E90004FF48030FFF798FB0120FFF78FFB00BF66
:101EA0003920FFF71BFB0028FAD00220FFF79AFB2E
:101EB00000BFFFF731FB0828FBD101210820FFF705
:101EC0006DFA01210846FFF769FA10BD2DE9F047C8
:101ED0004FF0E0218869FEF7E3FB06460022174B2E
:101EE000FEF750FB04460D46154A164B164903C92A
:101EF000FEF72FFA804622462B46FEF7CBFA134A0E
:101F000003C2134811490CC803C9FEF7C3FA0446BB
:101F1000104A114BFEF762FC07D2094A094B0B49E4
:101F200003C9FEF7B7FA094A03C2084903C9084AB8
:101F300003C2064903C9BDE8F0870000882A614151
:101F4000CDCCCCCCCCCCFC3F4000002030000020DD
:101F50003800002062105839B4C8FC3F2DE9F14F19
:101F6000FFF7B4FF82468B4600BF0098FEF798FB50
:101F700004460D46FFF7AAFF804652465B46FEF731
:101F800089FA064622462B46FEF710FCEDD3BDE843
:101F9000F88F00002DE9F14FFFF798FF82468B463E
:101FA00000BF0098FEF77CFB06460022094BFEF7B7
:101FB000E9FA04460D46FFF789FF064652465B469E
:101FC000FEF768FA804622462B46FEF7EFFBE8D381
:101FD000BDE8F88F00408F402DE9FC47824614464B
:101FE0001D46FFF773FFCDE90001DAE900633246D1
:101FF000DDE90001FEF74EFA804622462B46FEF749
:10200000EDFB06D8FFF762FFCAE900010120BDE839
:10201000FC870020FBE700004FF0E021096921F078
:1020200004014FF0E0221161034951611146096931
:1020300041F00301116170474031F70070B505466A
:102040000024002003E00E5C2644F4B2401C9042C1
:10205000F9DB9C4201D1012070BD0020FCE7F0B506
:1020600089B0044600200890002520216846FEF72C
:1020700076F80027206890F8AD0000F0400040B1ED
:10208000206890F8AD0020F04000216881F8AD0094
:1020900002E0002009B0F0BD206804F017F8C6B2D5
:1020A000002E79DD06E0681CC5B2012208A920686F
:1020B00003F0F8FF9DF82000AA2801D0022DF2D1EC
:1020C0009DF82000AA2868D1012208A9206803F001
:1020D000E9FFAA208DF800009DF82000AA2870D101
:1020E0008DF80100012208A9206803F0DBFF9DF8AC
:1020F000200070BB00208DF8020000BF206803F0B4
:10210000E5FF0328FADB03220DF10301206803F049
:10211000C9FF9DF805709DF80300021D3B46694606
:102120002046FFF78BFF00287CD09DF80400A028F4
:1021300004D1A07B10B90120A073ABE79DF8040087
:10214000A1286FD1A07B0028EED00020A073012031
:10215000A0E79DF82000012836D18DF8020000BFCD
:10216000206803F0B3FF0328FADB03220DF103011B
:10217000206803F097FF9DF805709DF80300021D8D
:102180003B4669462046FFF759FFD8B19DF8040049
:10219000012803D1E0737DE770E06AE09DF8040058
:1021A000022802D10120207474E79DF8040004285D
:1021B00002D1012060746DE7206803F08EFF0020DB
:1021C00068E751E0002065E79DF82000032846D12C
:1021D0009DF820008DF8020000BF206803F076FF14
:1021E0000C28FADB0C220DF10301206803F05AFFE2
:1021F0009DF80E709DF80300021D3B46694620467F
:10220000FFF71CFF48B39DF805109DF8040001EB93
:102210000020E0809DF807109DF8060001EB0020EB
:10222000208100E02FE09DF809109DF8080001EBE7
:102230000020A0809DF80B109DF80A0001EB002003
:10224000A0819DF80D109DF80C0001EB002060812D
:10225000206803F042FF01201CE700201AE72068F5
:1022600003F03BFF002015E7206803F036FF002055
:1022700010E7206803F031FF00200BE7206803F02F
:102280002CFF002006E7002004E701600022828086
:10229000C280428102818281012282730022C27344
:1022A000027442748274C27470472DE9F04F8DB08D
:1022B00004460E4617461D464FF07E50206385F0BB
:1022C000004A87F0004B5146584604F083F80C90C2
:1022D00085F0004A5146304604F07CF80B900C988B
:1022E00004F006FC80460C9804F06CFE81460B98C6
:1022F00004F0FEFB0A900B9804F064FE099041463E
:102300001898FDF7B6FF03900999FDF7B2FF8246D2
:1023100049461798FDF7ADFF01900999FDF7A9FF10
:1023200003900A991698FDF7A4FF02900399FDF710
:1023300048FF83465146FDF744FF089049461898E8
:10234000FDF797FF824641461798FDF792FF8346B7
:102350005146FDF788FF0790079880F0004A5046E5
:10236000089904F097FA06904FF07C510C98FDF70D
:1023700080FF824604F0BCFB80464FF07C510C98F5
:10238000FDF777FF824604F01DFE81464FF07C5139
:102390000B98FDF76EFF824604F0AAFB0A904FF0FF
:1023A0007C510B98FDF765FF824604F00BFE099007
:1023B0004FF07C510698FDF75CFF824604F098FBD5
:1023C00005904FF07C510698FDF753FF824604F0CC
:1023D000F9FD049048460999FDF74BFF03900499D5
:1023E000FDF747FF824640460A99FDF742FF0390FA
:1023F0000599FDF73EFF83465146FDF7E2FE206357
:1024000040460999FDF735FF03900499FDF731FF28
:10241000824648460A99FDF72CFF03900599FDF77F
:1024200028FF83465146FDF71EFF606348460A9920
:10243000FDF71FFF03900499FDF71BFF82464046FE
:102440000999FDF716FF03900599FDF712FF8346E2
:102450005146FDF7B6FEA06348460999FDF709FF0E
:1024600003900599FDF705FF824640460A99FDF75E
:1024700000FF03900499FDF7FCFE83465146FDF7EB
:10248000F2FEE063216B0846FDF7F3FEE065D4E958
:102490000C01FDF7EEFE2066A16B206BFDF7E9FE57
:1024A0006066E16B206BFDF7E4FEA066616B084699
:1024B000FDF7DFFEE066D4E90D01FDF7DAFE2067E7
:1024C000E16B606BFDF7D5FE6067A16B0846FDF719
:1024D000D0FEA067D4E90E01FDF7CBFEE067E16B0B
:1024E0000846FDF7C6FEC4F880000DB0BDE8F08FC9
:1024F0000FB597B00020149013901290179890F891
:10250000840070B9DDE91F122198CDE90012029014
:102510001CA90EC91798FFF7C8FE0121179880F86B
:10252000841000211F98FEF78DF909D10021209811
:10253000FEF788F904D100212198FEF783F97DD0B8
:1025400021990846FDF795FE039020990846FDF76E
:1025500090FE01901F990846FDF78BFE00900199AF
:10256000FDF72FFE02900399FDF72BFE049003F078
:102570002BFF0590FEF706F902460B46CDE9060152
:102580000020FE49FDF7FEFFCDE90801FEF73EF908
:10259000159015991F98FDF76CFE1F9015992098BE
:1025A000FDF767FE209015992198FDF762FE2190B6
:1025B0001798406E05901798406F04900599FDF7A5
:1025C00000FE06902199FDF754FE08901798806E42
:1025D00003901798006F02900399FDF744FE049052
:1025E0002099FDF746FE06901798806F01460290ED
:1025F0004FF07C50FDF737FE03901798D0F880001D
:10260000014602900398FDF72EFE04901F99FDF7F6
:1026100030FE05900699FDF7D4FD07900899FDF767
:10262000D0FD4FF080410990FDF723FE11901798DF
:10263000006E05901798C06F049000E03CE105998A
:10264000FDF711FE06902199FDF713FE08901798EB
:10265000C06E014602904FF07C50FDF704FE0390DF
:102660001798D0F88000014602900398FDF7FBFD13
:1026700004902099FDF7FDFD06901798806E039059
:102680001798006F02900399FDF79BFD04901F9926
:10269000FDF7EFFD05900699FDF793FD079008996A
:1026A000FDF78FFD4FF080410990FDF7E2FD10909E
:1026B0001798C06E014604904FF07C50FDF7D3FD93
:1026C00005901798806F014604900598FDF7CBFDA3
:1026D00007904FF080402199FDF7CBFD06900799B8
:1026E000FDF7C7FD09901798006E03901798C06F0B
:1026F00002900399FDF765FD05904FF08040209909
:10270000FDF7B7FD04900599FDF7B3FD0790179805
:10271000406E03901798406F02900399FDF7A3FD58
:1027200005904FF080401F99FDF7A3FD0490059997
:10273000FDF79FFD06900799FDF743FD0890099965
:10274000FDF73FFD0F9010990846FDF792FD0890A8
:1027500011990846FDF78DFD07900899FDF731FDA9
:10276000099003F031FE0E900F980D901798406E6F
:1027700006901798406F05900699FDF774FD079035
:102780000D99FDF776FD09901798806F0146059029
:102790004FF07C50FDF767FD06901798D0F8800049
:1027A000014605900698FDF75EFD07900E99FDF72E
:1027B00060FD08900999FDF704FD0C901798C06F13
:1027C00006901798006E05900699FDF7FAFC0790A1
:1027D0000D99FDF74EFD09901798806E0690179899
:1027E000006F05900699FDF73EFD07900E99FDF7E5
:1027F00040FD08900999FDF7E4FC0B901798C06E16
:10280000014605904FF07C50FDF72DFD069017987E
:10281000806F014605900698FDF725FD07900D99FC
:10282000FDF727FD09901798406F06901798406EA6
:1028300005900699FDF7C5FC07900E99FDF719FD67
:1028400008900999FDF7BDFC0A900B992198FDF7B6
:1028500010FD08900A992098FDF70BFD0790089944
:10286000FDF701FD09901499FDF7ABFC14900A994E
:102870001F98FDF7FEFC08900C992198FDF7F9FCD4
:1028800007900899FDF7EFFC09901399FDF799FC63
:1028900013900C992098FDF7ECFC08900B991F9869
:1028A000FDF7E7FC07900899FDF7DDFC0990129908
:1028B000FDF787FC129000BF00211C98FDF7C2FFB6
:1028C00009D100211D98FDF7BDFF04D100211E98FC
:1028D000FDF7B8FF7ED01E990846FDF7CAFC0790A9
:1028E0001D990846FDF7C5FC05901C990846FDF7A3
:1028F000C0FC04900599FDF764FC06900799FDF76C
:1029000060FC089003F060FD0990FDF73BFF024674
:102910000B46CDE90A0100201849FDF733FECDE949
:102920000C01FDF773FF159015991C98FDF7A1FC9C
:102930001C9015991D98FDF79CFC1D9015991E98EB
:10294000FDF797FC1E901798406E0E901798406FF9
:102950000D900E99FDF787FC11901798C06F0E909F
:102960001798006E0D900E99FDF72BFC109017989C
:10297000C06D4FF07C510D9002E000000000F03F70
:10298000FDF771FC0E901798D0F8800001460D906D
:102990000E98FDF716FC0F9010991E98FDF769FC34
:1029A0000D900F991D98FDF764FC0C900D99FDF7A3
:1029B0005AFC0E901499FDF704FC14900F991C9882
:1029C000FDF757FC0D9011991E98FDF752FC0C90E5
:1029D0000D9900E019E0FDF746FC0E901399FDF704
:1029E000F0FB139011991D98FDF743FC0D90109981
:1029F0001C98FDF73EFC0C900D99FDF734FC0E90F1
:102A00001299FDF7DEFB129000BF00211498FDF72C
:102A100019FF7DD000211398FDF714FF7ED000210F
:102A20001298FDF70FFF79D000212398FDF714FFCE
:102A300050D214992398FDF71CFC10902499FDF7AF
:102A400018FC11901798006D014610901198FDF731
:102A5000B8FB1799086513992398FDF70AFC1090A5
:102A60002499FDF706FC11901798406D01461090CF
:102A70001198FDF7A6FB0146179841651299239816
:102A8000FDF7F7FB10902499FDF7F3FB11901798D1
:102A9000806D014610901198FDF793FB0146179841
:102AA00081651798006D014611901898FDF789FB14
:102AB00018901798406D014611901998FDF781FB09
:102AC00019901798806D014611901A98FDF779FBBF
:102AD0001A9006E00021179801651798416517982C
:102AE000816514992298FDF7C4FB11901899FDF7A0
:102AF00068FB189013992298FDF7BBFB1190199968
:102B0000FDF75FFB199012992298FDF7B2FB00E0E8
:102B100004E011901A99FDF754FB1A901798C06BB6
:102B20000E901A99FDF7A5FB10901798806B0C90EA
:102B30001999FDF79EFB0E901798406B80F00040AE
:102B40000C901899FDF795FB0D900E99FDF78BFBF6
:102B50000F901099FDF787FB4FF07C511190FDF716
:102B600088FB179908641798C06B0E901999FDF7A8
:102B700080FB10901798806B0C901A99FDF779FBE9
:102B80000E901798006B0C901899FDF772FB0D9042
:102B90000E99FDF716FB0F901099FDF764FB4FF0AF
:102BA0007C511190FDF765FB179948641798C06B2D
:102BB0000E901899FDF75DFB10901798406B0C90E4
:102BC0001A99FDF756FB0E901798006B0C90199907
:102BD000FDF74FFB0D900E99FDF745FB0F901099F7
:102BE000FDF7EFFA4FF07C511190FDF742FB17997A
:102BF00088641798806B0E901899FDF73AFB109037
:102C00001798406B0C901999FDF733FB0E901798AD
:102C1000006B0C901A99FDF72CFB0D900E99FDF7A7
:102C2000D0FA0F901099FDF71EFB4FF07C511190D8
:102C3000FDF71FFB1799C8641798006C01461090A8
:102C40002498FDF716FB11901798006B0146109021
:102C50001198FDF7B6FA179908631798406C01466A
:102C600010902498FDF705FB11901798406B0146D2
:102C700010901198FDF7A5FA179948631798806C82
:102C8000014610902498FDF7F4FA11901798806B84
:102C9000014610901198FDF794FA179988631798D8
:102CA000C06C014610902498FDF7E3FA1190179834
:102CB000C06B014610901198FDF783FA1799C8630D
:102CC0001798C06B09901798C06B08900999FDF789
:102CD000D0FA0B901798806B07901798806B06902E
:102CE0000799FDF7C6FA09901798406B0590179859
:102CF000406B04900599FDF7BCFA07901798006B9C
:102D000005901798006B04900599FDF7B2FA0690AC
:102D10000799FDF756FA08900999FDF752FA0A90BB
:102D20000B99FDF74EFA0C9003F04EFB0D90FDF75A
:102D300029FD02460B46CDE90E0100204C49FDF766
:102D400021FCCDE91001FDF761FD15901798006B8E
:102D500011901599FDF78DFA179908631798406B34
:102D600011901599FDF785FA179948631798806BAC
:102D700011901599FDF77DFA179988631798C06B24
:102D800011901599FDF775FA1799C8631798006B9C
:102D900011901798006B10901199FDF76AFA179926
:102DA000C8651798406B11901798006B1090119997
:102DB000FDF75FFA179908661798806B11901798BE
:102DC000006B10901199FDF754FA179948661798FF
:102DD000C06B11901798006B10901199FDF749FA8C
:102DE000179988661798406B11901798406B109050
:102DF0001199FDF73EFA1799C8661798806B1190E4
:102E00001798406B10901199FDF733FA17990867DE
:102E10001798C06B11901798406B10901199FDF79F
:102E200028FA179948671798806B11901798806B4C
:102E300010901199FDF71DFA179988671798C06BC4
:102E400011901798806B10901199FDF712FA17994D
:102E5000C8671798C06B11901798C06B10901199A4
:102E6000FDF707FA1799C1F880001BB000BD0000FC
:102E70000000F03F0FB42DE9F04F89B005460C4635
:102E80001A9E1698FDF7EDFB07461598FDF7E9FB2E
:102E900080461498FDF7E5FB8146544854490022CA
:102EA000CDE90521CDE90272CDE90098CDE907060B
:102EB0000492204617A90EC9FFF71AFB4FF0804075
:102EC000216BFDF7D6F98346A16BFDF7D2F9814658
:102ED0004FF04040616BFDF7CCF98346E16BFDF7A5
:102EE000C8F982464946FDF76CF9804603F062FA5C
:102EF00007464049FDF7BDF960604FF08040A16B87
:102F0000FDF7B7F90790A16BFDF7B3F982464FF0D3
:102F10004040616BFDF7ADF90790616BFDF7A9F9D2
:102F200083465146FDF79FF981464FF07E51FDF7EC
:102F300048F980464FF08040216BFDF79AF98346AF
:102F4000616BFDF796F981464FF08040A16BFDF76C
:102F500090F98346E16BFDF78CF982464946FDF70F
:102F600030F94146089003F035FA07462149FDF74C
:102F700080F92060E16B0846FDF77BF90890A16BB2
:102F80000846FDF776F907900899FDF71AF9834688
:102F90004FF08041FDF76DF982464FF07E51FDF70D
:102FA00065F98046D4E90D01FDF763F98346E16BCD
:102FB000206BFDF75EF959460890FDF702F982464D
:102FC0004FF08041FDF755F98146414603F002FA82
:102FD00007460849FDF74DF9A06094E8070085E829
:102FE000070009B0BDE8F00F5DF814FBCDCC4C3DF7
:102FF0000000C842A34C65422DE9F04F85B08246DF
:103000000F4690461D46DDE90FB90E9EB8F1FF0F41
:1030100018D106208DF8000000208DF80C008DF8E6
:1030200007600290002408E029780DF102000155A4
:103030002878401C2870601CC4B2B442F4DB8DF8C0
:1030400001703AE0012E20DB03D104208DF800004E
:1030500002E005208DF8000000208DF80C00701CA7
:10306000C0B28DF80700002002908DF80280012484
:1030700006E029780DF1020001556D1C601CC4B2F8
:10308000B442F6DD8DF8017017E0B9F1010F03DDF0
:1030900002208DF8000005E0B9F1010F02D10120F6
:1030A0008DF800008DF80C9001208DF80700CDF808
:1030B00008B08DF802808DF8017011988DF80D0020
:1030C0001298049069460AF1140004F07BF801207C
:1030D00005B0BDE8F08F0168098841F4004102683D
:1030E00011800168098821F400410268118070474D
:1030F000F8B504460D46164601210820FEF74EF9A4
:1031000010492068884209D1207A38B10121084647
:10311000FEF744F901210220FDF774FF03208DF82A
:1031200002001C208DF80300ADF8005069460648E7
:10313000FDF7DCFEADF8006069460348FDF7D6FEFA
:10314000F8BD000000540040000C014010B50446DA
:1031500004F1140004F062F810BD00000146044AB6
:103160000868904201D1022070470120FCE700006E
:1031700000580040F8B506460C46154603208DF869
:10318000020004208DF80300ADF8004069460548B0
:10319000FDF7ACFEADF8005069460248FDF7A6FE0B
:1031A000F8BD0000000C014010B50446207C10283A
:1031B00001D1002010BD207C22280AD12068808AFD
:1031C00038B92068008B20B9102020742046FFF702
:1031D00082FF2068008B00F00300022806D1102037
:1031E00020742046FFF777FF0020E3E7207C0128CA
:1031F00026D104F1140004F00DF8002820DD4FF46E
:1032000000312068FDF7A8FF30B11020207420465F
:10321000FFF761FF0020CDE704F54F7104F11400C2
:1032200003F0AAFF20202074002060820121206882
:10323000FDF76EFF01212068FDF776FF0120B9E759
:1032400004F1140003F0E6FF08B90220B2E7012000
:10325000B0E700002DE9F8430746884615461C46AE
:10326000002648E000214046FEF778F801210820BA
:10327000FEF794F803208DF8020010208DF803006B
:10328000ADF8005069462348FDF730FEADF8004028
:1032900069462048FDF72AFE29461E48FDF703FF30
:1032A00021461C48FDF7FFFE0521384600F094F941
:1032B00029461848FDF7F9FE0521384600F08CF93B
:1032C00021461448FDF7F1FE0521384600F084F947
:1032D000224629463846FFF74DFF01214046FEF7BA
:1032E0004DF800214046FEF749F801214046FEF71F
:1032F00035F8701CC6B24FF400313868FDF72CFF6A
:1033000008B1142EAEDB142E02D10020BDE8F883E4
:103310000120FBE7000C01402DE9F04705460F4670
:1033200090461E464FF000094FF0010A21E000BF11
:10333000284600F0FBFB0446012C0AD18246287C7B
:10334000012800D116E0287C102807D14FF0000A90
:1033500010E0022C02D14FF0000A0BE009F101004D
:103360001FFA80F94FF6FE70814502DD4FF0000A2A
:1033700000E0DCE700BFBAF1010F17D0B8F1000F91
:1033800002D02846FFF7E2FE06B1012717B1284612
:1033900000F00EF83EB1284600F0C8FB18B92846E8
:1033A000FFF702FFC4E70020BDE8F0870120FBE73C
:1033B0002DE9F04F91B004462046FFF7CFFE0128DB
:1033C00013D147054FF01F0A4FF0200B607A18B158
:1033D0004FF010084FF01109207A18B14FF48075A2
:1033E0006E0012E0402580260FE04FF480073D1369
:1033F0006E004FF0210A4FF0220B607A18B14FF0A7
:103400000E084FF00F09734804602046FFF763FE73
:103410002068008820F0010021680880607A38B1B7
:10342000D4F85803FDF7EEFBD4F85C03FDF7EAFB94
:1034300001213846FDF7A2FF00213846FDF79EFF27
:1034400001213846FDF78AFF33462A463946204691
:10345000FFF700FF28B910202074002011B0BDE84C
:10346000F08F324629462046FFF742FE607A28B1A7
:103470002068808840F400602168888060680D9032
:103480000020ADF838004BF6FF70ADF83A00002090
:10349000ADF83C004FF48060ADF83E000001ADF89F
:1034A00040000DA92068FDF781FE607A10B301216C
:1034B0000846FDF743FF0020059006908020079006
:1034C0000020089009904FF440500B9000200A9083
:1034D0000C902068103002901020049002A9D4F8BB
:1034E0005803FDF758FC0020049002A9D4F85C03AF
:1034F000FDF751FC01208DF807008DF804A0A07A9B
:103500008DF80500E07A8DF8060001A8FDF7D4FEDD
:103510002068808840F40070216888808DF804B0AD
:10352000207B8DF80500607B8DF8060001A8FDF773
:10353000C3FE2068808840F4807021688880607AAB
:1035400030B12068808820F480602168888005E0A0
:103550002068808840F4806021688880607AA8B301
:103560008DF80480A07B8DF80500E07B8DF80600C7
:1035700001A8FDF7A1FED4F85803006840F002004E
:10358000D4F858130860D4F85803006840F00800D5
:10359000D4F8581308608DF80490A07B8DF80500CE
:1035A000E07B8DF8060001A8FDF786FED4F85C03E9
:1035B000006840F00200D4F85C130860D4F85C03A3
:1035C000006840F00800D4F85C1308600120207403
:1035D00000BF43E71800002070B505460C462046A2
:1035E00001F088FB70BD000010B504461848006863
:1035F000D4F85013084018B30021D4F85C03FDF749
:10360000F5FA01212068FDF79BFD04F1140003F099
:1036100001FE002815DD04F54F7104F1140003F0DC
:10362000ABFD20202074002060822068FDF7B1FDF2
:1036300001212068FDF76CFD01212068FDF774FD74
:1036400001E001202074024800680149486010BD73
:10365000000002400349096802490968014A5160B3
:10366000704700000000024010B503461868808AC9
:1036700000F470644FF2FF001968888204F48070CF
:1036800058B11868008840F400401968088018682C
:10369000008820F400401968088004F4007058B1D4
:1036A0001868008840F4004019680880186800888D
:1036B00020F40040196808801846FFF70CFD102020
:1036C000187410BD10B504462068FDF762FDF74977
:1036D00008600846F64A0168881A914275D00ADCEB
:1036E000102973D0402972D06FF44030084460B183
:1036F00001286DD1B2E004286BD0A0F580204238BB
:10370000002867D00228F4D13BE1207C20283DD15D
:10371000607A58B12068808820F4806021688880B1
:103720002068808840F400602168888040F23D3243
:10373000115D00222068FDF7B3FD22202074607A1D
:10374000002876D094F83C03042806DB40F243308E
:10375000015D4FF45B70015103E001214FF45B7098
:10376000015104F23E304FF45971085110214FF4C9
:103770005A70015104F55871D4F85803FDF70BFB4A
:103780000121D4F85803FDF731FA52E0207C2128BA
:103790004FD140F23D32115D01222068FDF780FDDE
:1037A00030202074607AE0B394F83C03012812D1F1
:1037B0002068808840F48060216888802068808844
:1037C00020F400602168888033E054E08CE191E1CE
:1037D00094E185E12EE02068808840F480502168E3
:1037E00088802068808820F4806021688880206834
:1037F000808840F40060216888804FF45270015D39
:103800004FF45B7001514FF4517001594FF45970EE
:1038100001510021001D015104F55871D4F85C03D9
:1038200000E006E0FDF7B7FA0121D4F85C03FDF7EC
:10383000DDF963E1607A80B940F23E32115D2068C3
:10384000FDF737FD608A401C608240F24330005D26
:10385000401EC1B240F2433001554FE194F83C03A1
:10386000012807D100212068FDF752FC01212068C2
:10387000FDF766FC42E1207C302833D1607A90B3BA
:1038800094F83C0301287BD12068FDF705FD4FF437
:103890005171095908702068808820F4806021687F
:1038A000888040F24930005D20B14FF453710859CF
:1038B00001F006FE04F1140003F0ACFC002813DD57
:1038C00004F54F7104F1140003F056FC202020741D
:1038D0000020608201212068FDF71AFC0121206888
:1038E000FDF722FC4CE002E00120207448E0206853
:1038F000FDF7D2FC4FF45171095908704FF4517023
:103900000059401C4FF451710851081D005D401EC4
:10391000C1B24FF452700155005D012808D1002159
:103920002068FDF7F5FB01212068FDF709FC27E081
:103930004FF45270005D00BB40F24930005D20B191
:103940004FF45371085901F0BBFD04F1140003F06A
:1039500061FC002812DD04F54F7104F1140003F03E
:103960000BFC202020740020608201212068FDF7DC
:10397000CFFB01212068FDF7D7FB01E00120207477
:10398000BCE0207C22287DD1607AD0B3D4F85803E3
:10399000FDF7DEF9002833D1207C2228FBD100215D
:1039A000D4F85803FDF722F994F83C0304282CDBE3
:1039B00001212068FDF7C4FB40F24930005D20B1D1
:1039C0004FF45371085901F07BFD04F1140003F02A
:1039D00021FC002816DD04F54F7104F1140003F0FA
:1039E000CBFB202020740020608201212068FDF79D
:1039F0008FFB2068FDF7CDFB01212068FDF794FBCC
:103A00006DE009E00120207469E02120207401218B
:103A10002068FDF789FB62E040F24330005D00283A
:103A200011DD638A5A1C628204F23E32D15C206846
:103A3000FDF73FFC40F24330005D401EC1B240F252
:103A4000433001554BE094F83C03042832DB01215C
:103A50002068FDF775FB40F24930005D20B14FF45E
:103A60005371085901F02CFD04F1140003F0D2FB4E
:103A7000002817DD04F54F7104F1140003F07CFBFE
:103A8000202000E01DE020740020608201212068D9
:103A9000FDF73EFB2068FDF77CFB01212068FDF768
:103AA00043FB1CE00120207419E00000000000200E
:103AB000400003002120207401212068FDF734FB21
:103AC0000DE013480078401C114908700846007842
:103AD000032804DD2046FFF7FEFA102020740DE0D5
:103AE0002068FDF7D9FB09E02046FFF7F4FA102023
:103AF000207403E02068FDF7CFFB00BF00BF05483E
:103B000000680549884202D000200149087010BDB4
:103B10000400002000000020840007000146087C0B
:103B2000102801D1002070470120FCE710B50446A1
:103B30002046FFF7F3FF08B9022010BD04F114007E
:103B400003F068FB002801DD0020F6E70120F4E720
:103B50002DE9F05F04460D4616461F46DDE90CAB25
:103B6000DDE90A8904F1140003F060FBA0F11404FC
:103B70006672607AB8B100214FF45C7001514FF465
:103B80006070015180214FF45D7001510021001DD2
:103B90000151001D01514FF440514FF4617001512A
:103BA0000021001D01516760012D1AD138482060A5
:103BB000607A60B13748C4F8580336481430C4F806
:103BC0005C038004C4F850030011C4F85403324865
:103BD0000460B8F1000F01D0012000E00020207245
:103BE00016E02E482060607A70B12A482838C4F860
:103BF000580328481438C4F85C034FF40030C4F864
:103C000050030011C4F854032548046000202072BA
:103C100084F80AA084F80BB00E9820730F98607394
:103C20001098A0731198E0732046FFF7C1FBB9F11B
:103C3000000F09D0B9F1010F0BD0B9F1020F0DD06F
:103C4000B9F1040F0FD113E04FF4E060FDF76CFB06
:103C500013E04FF4C060FDF767FB0EE04FF4A06087
:103C6000FDF762FB09E04FF48060FDF75DFB04E0C7
:103C70004FF44070FDF758FB00BF00BF607A18B1E9
:103C800020681030C4F860032046BDE8F09F0000B3
:103C9000005400406C000240140000200058004016
:103CA00018000020F0B587B0044600250026002744
:103CB00052485349097850F8210052490968081AB6
:103CC0005049086001A8216802F0B0F801A807C8AF
:103CD00004AB07C349494A4A127841F8220001A8B7
:103CE000216802F0A3F801A807C804AB07C345493F
:103CF00009680844434908600868C11700EB51711E
:103D0000CD103F480078401C3D49087008460078B7
:103D1000082801D100200870C4F88C503A483B496B
:103D2000097850F821003A490968081A38490860AA
:103D300001A8216802F07AF801A807C804AB07C3FC
:103D40003148324A127840F8221001A8216802F066
:103D50006DF801A807C804AB07C308462C490968D9
:103D600008442B4908600868C11700EB5171CE1058
:103D700026480078401C2549087008460078082825
:103D800001D100200870902006512248224909786C
:103D900050F8210021490968081A2049086001A843
:103DA000216802F043F801A807C804AB07C3114615
:103DB0001848194A127840F8221001A8216802F028
:103DC00035F801A807C804AB07C31449096850189F
:103DD000124908600868C11700EB5171CF100E48F6
:103DE0000078401C0C49087008460078082801D16A
:103DF000002008709420075107B0F0BDF4000020A7
:103E00007400002078000020140100207C000020B5
:103E10008000002034010020840000208800002061
:103E200010B50446206801F0D1FD012010BD014607
:103E3000086890F83C201046704700002DE9F05FBC
:103E40008246FEF743F80446FCF7E0FC8346002177
:103E5000DAF8000001F0BEFD00BF5846FCF792FC06
:103E600006460F46FEF732F8804632463B46FCF7E0
:103E700011FB04460022074BFCF798FCEDD3012010
:103E80008AF8B00004A10C4801F068FA0120BDE8EE
:103E9000F09F00000000F83F63616C69627261741A
:103EA000696E67202E2E2E20646F6E2774206D6F32
:103EB00076652121210A0000F80500202DE9F04156
:103EC0008EB0044600231A461946206801F04EFEC3
:103ED00070B900231A461946206801F047FE38B928
:103EE00023A1284801F03AFA00200EB0BDE8F08185
:103EF00094F8B00050B1206801F064FD30B90020A2
:103F000084F8B00020A11F4801F028FA206890F83A
:103F10003C1059B32046FFF7C5FE04F1B4052068F4
:103F200001F044FD0746FCF771FC064608A821682D
:103F300001F0E6FD049608A807C801AB07C394206A
:103F40000059009004F18000211DD0E9032305A849
:103F5000FEF790FF05A807C80BAB07C30B982860B6
:103F60000C9868600D98A86000BF00BF0120BCE7F6
:103F70006D707536303530206572726F720A0A0ABC
:103F800000000000F80500200A63616C696272613C
:103F9000746520636F6D706C6574650A00000000C5
:103FA0002DE9F04105460F462F602C1D204603F0F9
:103FB00089FA044604F10C06304603F083FA0646FB
:103FC00006F10C0003F07EFAA0F10C0606F11800D1
:103FD00003F078FAA0F1180600BFA6F10C044FF028
:103FE0007E5020630020206500216165A16500BF2F
:103FF000251F05F18C04204601604160816000BFEF
:1040000004460C3003F05EFAA0F1980505F1B40007
:1040100003F058FAA0F1B4052846BDE8F08110B5C8
:1040200004462179206800F02BFE10BD016012B11A
:104030000123037101E00023037170472DE9F04F64
:1040400089B004460F4690469946DDF848B0159D64
:10405000A76084F8188084F8199084F81AB013982F
:10406000E0761498A083C949A068884220D1C01482
:10407000206004206060C648E06080152082400017
:1040800060824000A0824000E082022D0FD14020DB
:1040900060600121BF48FCF7B5FFBF48E0604015F4
:1040A0002082800060828000A0824000E082ABE03D
:1040B000A068B0F1804F47D10120206004206060EB
:1040C000B348E06001202082022060820420A082A8
:1040D0000820E082012D10D1042060600121AF484A
:1040E000FCF790FFAA48E060E80320820820608285
:1040F0000420A0820820E08286E0022D10D1042056
:1041000060600121A648FCF77DFFA148E060A8039C
:104110002082082060820420A0820820E08273E0D0
:10412000032D71D10420606001219E48FCF76AFFD5
:104130009748E0604FF40040208208206082C00170
:10414000A0824000E0825FE09749A068884237D1B2
:1041500002202060042060608D48E06040202082C2
:10416000802060820120A0820220E082012D14D1F3
:104170000820606001218D48FCF744FF01218C4834
:10418000FCF740FF8B48E0601020208220206082F6
:104190000120A0820220E08236E0022D34D11020DE
:1041A000606001218448FCF72DFF8448E0604020D6
:1041B0002082802060824000A0824000E08223E0D4
:1041C0007F49A06888421FD10420206008206060D9
:1041D0007848E06040202082802060824000A082F9
:1041E0004000E082012D0FD1202060600121C0013C
:1041F000FCF708FF7348E060801420824000608272
:104200004000A0824000E0826049A068884204D15A
:1042100001212068FDF7C2F803E001212068FDF7C5
:104220009DF801216068FDF7B9F8207E08B90020EB
:104230002082607E08B900206082A07E08B900203C
:10424000A082E07E08B90020E08203208DF82200E1
:1042500018208DF823005449A068884213D195B9DD
:10426000A08AE18A0843ADF8200008A95148FCF76C
:104270003DFE208A618A0843ADF8200008A9E06865
:10428000FCF734FE0CE0208A618A0843A18A0843C7
:10429000E18A0843ADF8200008A9E068FCF726FE93
:1042A000A08B494991FBF0F200FB121AA08B91FB05
:1042B000F0F6A08B00EBD071BAEB610F00D9761C41
:1042C0000120A084266206E0A08C401C80B2A0845D
:1042D000B6FBF0F020624FF6FF71206A8842F3D2FD
:1042E000208C401E80B2ADF81800A08C401E80B219
:1042F000ADF814000020ADF81A00ADF8160005A9BD
:10430000A068FDF743FC6020ADF804000120ADF883
:1043100006000020ADF80C00ADF80A00207E18B1B0
:1043200001A9A068FDF7D6FA607E18B101A9A068BE
:10433000FDF726FBA07E18B101A9A068FDF780FB60
:10434000E07E18B101A9A068FDF7D4FB207E18B16A
:104350000821A068FDF70AFB607E18B10821A0685B
:10436000FDF760FBA07E18B10821A068FDF7B8FB3F
:10437000E07E18B10821A068FDF7FAFB0121A068D2
:10438000FDF79CFA09B0BDE8F08F0000002C014059
:1043900000080140C000160000180140000118008C
:1043A0000002180000031800000400400001300063
:1043B00000081A00000C0140000C1A000010014017
:1043C000000800400014014000A24A042DE9F05FFB
:1043D00004460F4615461E46DDF82880207E78B13B
:1043E000206AFCF747F983463946FBF742FF8246CD
:1043F0002049FBF770FF8146FCF778F9A1688886B1
:10440000607E78B1206AFCF735F983462946FBF7D0
:1044100030FF82461749FBF75EFF8146FCF766F9DD
:10442000A1680887A07E78B1206AFCF723F983464B
:104430003146FBF71EFF82460E49FBF74CFF8146D3
:10444000FCF754F9A1688887E07E80B1206AFCF708
:1044500011F983464146FBF70CFF82460549FBF7FD
:104460003AFF8146FCF742F9A168A1F84000BDE897
:10447000F09F00000000C8422DE9F04704460D46B9
:104480001646012D06D0022D17D0032D28D0042D5D
:104490004DD138E0207E78B1206AFCF7EBF88146F8
:1044A0003146FBF7E6FE80462249FBF714FF07463C
:1044B000FCF71CF9A168888639E0607E78B1206A33
:1044C000FCF7D8F881463146FBF7D3FE8046194900
:1044D000FBF701FF0746FCF709F9A168088726E00A
:1044E000A07E78B1206AFCF7C5F881463146FBF71B
:1044F000C0FE80460F49FBF7EEFE0746FCF7F6F8D4
:10450000A168888713E0E07E80B1206AFCF7B2F8EA
:1045100081463146FBF7ADFE80460649FBF7DBFEE0
:104520000746FCF7E3F8A168A1F8400000BF00BF10
:10453000BDE8F0870000C8422DE9FF5F04460D4644
:1045400016461F46DDE910ABDDE90E893B463246D3
:10455000294620468DE8000FFFF770FD204604B085
:10456000BDE8F09F10B504460B49D4F8B800884266
:1045700004D101218014FCF711FF08E00749D4F8A9
:10458000B800884203D101210014FCF7E7FE0121A5
:104590000846FCF703FF10BD003001400038004022
:1045A00070B504460D4600BF0221D4F8B800FDF7EF
:1045B0007BF80028F8D02946D4F8B800FDF7AAF80F
:1045C00000BF0121D4F8B800FDF76EF80028F8D03C
:1045D000D4F8B800FDF79BF8C0B270BD38B50446FA
:1045E0006021D4F8B800FDF768F8012815D154F817
:1045F000B80F0121FDF758F860212068FDF741F858
:1046000054F8B809FDF783F8C0B26946009004F188
:10461000480002F0D2FE002543E07121D4F8B80032
:10462000FDF74BF8012828D10221D4F8B800FDF796
:104630003BF87121D4F8B800FDF723F8204602F0CA
:104640002DFF00280ADD1849204602F097FE164982
:104650000978D4F8B800FDF75DF80CE0204602F0C8
:104660001DFF40B900227121D4F8B800FDF73FF8D2
:10467000002084F8B400012513E05021D4F8B800DC
:10468000FDF71BF801280CD1B43450216068FDF708
:1046900014F850216068FCF7F4FF0225002004F8AC
:1046A000B409284638BD00004C0000202DE9F04137
:1046B00004460E461546002084F8B400AAB23146DE
:1046C000204602F0C2FE94F8B50080B394F8B4001E
:1046D00068BB204602F0E2FE002856DD012084F887
:1046E000B400204602F0DAFE142810DC204602F066
:1046F000D5FED4F8A4104860204602F0CFFE07464D
:104700003A4604F19001204602F079FE09E01420B7
:10471000D4F8A4104860142204F19001204602F05D
:104720006EFE0121D4F8A400FCF760FA2DE0FFE74B
:1047300094F8B50018BB94F8B40000BB204602F012
:10474000ADFE002821DD012084F8B4001049204688
:1047500002F014FE54F8B80F0D490978FCF7DAFF9F
:1047600071212068FCF78DFF012271212068FCF780
:10477000BEFF54F8B8090221FCF796FF05E094F853
:10478000B40010B10020BDE8F0810120FBE700007B
:104790004B00002070B505460C46084800884FF6CF
:1047A000C7710840054908800846008820430880F2
:1047B00001210248FCF756FF70BD000000300140A7
:1047C00070B504460D46294604F1C80000F058FAB9
:1047D00070BD00002DE9F04F99B00446884691461F
:1047E0001E46DDE923AB204602F063FE044604F1D9
:1047F000480002F05EFEA0F14804002084F8B400F6
:10480000032010230122DA49009004F1BC0000F0DB
:104810004FFAA0F1BC04032010230122D4490090D8
:1048200004F1C80000F044FAA0F1C80403201023EA
:104830000122CF49009004F1D40000F039FAA0F130
:10484000D404032010230122C949009004F1E000A0
:1048500000F02EFAA0F1E004C4F8B88084F8B59016
:10486000002010900F900E900D902046FFF77AFEDA
:10487000C049D4F8B800884247D1BF48046023201B
:104880000C9094F8B50050B1BC4844F8A40F0D2723
:104890008015A060400060608000E060A43CC6B964
:1048A000B34D04200F90032010230090294608A840
:1048B0000F9A00F0FDF90A220146079004F1C800A2
:1048C000FBF734FC0520109006200E9007200D9079
:1048D0004AE0012E48D1A64D0F200F90032010234F
:1048E0000090294608A80F9A00F0E2F90A22014632
:1048F000079004F1C800FBF719FCA14D03201090AC
:1049000004200E9005200D902EE09E49D4F8B800AA
:10491000884229D19C48046094F8B50058B1974862
:10492000283044F8A40F0F278813A060400060606F
:104930008000E060A43C924D0C200F9003201023D7
:104940000090294608A80F9A00F0B2F90A22014601
:10495000079004F1C800FBF7E9FB0D2010900E2032
:104960000E900F200D9000BF0320182300902946C1
:1049700016A8109A00F09CF90A2201460A9004F148
:10498000BC00FBF7D3FB032018230090294616A890
:104990000D9A00F08DF90A2201460A9004F1E00018
:1049A000FBF7C4FB032018230090294616A80E9A93
:1049B00000F07EF90A2201460A9004F1D400FBF7C8
:1049C000B5FBC420005BE822125B1043DC22125BC3
:1049D00040EA02012846FCF768FB1820ADF85000B9
:1049E0000020ADF84C00ADF84A000720ADF85400A7
:1049F0000020ADF84800ADF84400ADF852004FF487
:104A00008270ADF846004FF40070ADF84E0011A969
:104A1000D4F8B800FCF780FE0121D4F8B800FCF708
:104A200021FE94F8B500002846D001220221D4F8D6
:104A3000B800FCF730FE01210846FCF77FFCD4F8F3
:104A4000B8000C30009004F190000190102002900A
:104A50000120039000200490802005900020069003
:104A600007900890259820B1012806D002280CD183
:104A700007E04FF4405009900AE04FF400500990CD
:104A800006E04FF48050099002E00020099000BF3A
:104A900000BF00200A906946D4F8A400FCF77BF917
:104AA0000021D4F8A400FCF7A1F801220A21334820
:104AB0001430FCF767F91BE054F8B80F012270219D
:104AC000FCF715FE002271212068FCF710FE03217F
:104AD0002068FCF7D3FD03212068FCF7E5FD712178
:104AE0002068FCF7EAFD54F8B8097121FCF7C9FD0C
:104AF000229830B1012809D002280CD004280FD107
:104B000013E04FF4E060FCF70FFC13E04FF4C060DB
:104B1000FCF70AFC0EE04FF4A060FCF705FC09E08E
:104B20004FF48060FCF700FC04E04FF44070FCF7A9
:104B3000FBFB00BF00BF0C988DF82C008DF82DA05A
:104B40008DF82EB001208DF82F000BA8FCF7B4FBD8
:104B500094F8B50040B18DF82C708DF82DA08DF82B
:104B60002EB00BA8FCF7A8FB204619B0BDE8F08FCB
:104B700000080140003001401C00002030000240CD
:104B8000000C01400038004020000020084AD0F806
:104B9000B810914203D10021064A116007E0064A8D
:104BA000D0F8B810914202D10021044A1160704738
:104BB000003001401C000020003800402000002090
:104BC00010B504461F496068884204D101210420C1
:104BD000FCF7E4FB34E01C496068884204D1012101
:104BE0000820FCF7DBFB2BE018496068884204D101
:104BF00001211020FCF7D2FB22E0154960688842B1
:104C000004D101212020FCF7C9FB19E0114960689B
:104C1000884204D101214020FCF7C0FB10E00E497E
:104C20006068884204D101218020FCF7B7FB07E0CF
:104C30000A496068884203D101218015FCF7AEFB68
:104C400010BD000000080140000C014000100140B0
:104C50000014014000180140001C014000200140E8
:104C600010B504462289054B33F812106068FCF732
:104C700011FA08B9002010BD0120FCE7E674000815
:104C800070B504460D46002D07DD2289074B33F829
:104C900012106068FCF709FA06E02289034B33F82A
:104CA00012106068FCF7FFF970BD0000E6740008A0
:104CB0002DE9F84304460F4615461E46DDF82080D0
:104CC000267084F80180676025812046FFF778FF11
:104CD000074830F81500ADF800008DF802808DF817
:104CE000036069466068FCF701F92046BDE8F88377
:104CF000E674000800B9704700EBC0024FF0E023F3
:104D00005A6100229A6101221A6100BF4FF0E0222D
:104D1000116901F001021AB101F48032002AF5D0C4
:104D200000224FF0E0231A619A6100BFE3E7000020
:104D300038B5044640F22551D4F82801FCF7CDFFE0
:104D400090B1D4F82801FDF783F8C0B2694600900D
:104D500004F1880002F094FA40F22551D4F82801B9
:104D6000FCF78AFF002500BF40F22771D4F8280124
:104D7000FCF7B3FFE8B1204602F0F3FA002809DDA2
:104D80001F49204602F05DFA1D490978D4F8280130
:104D9000FDF763F8204602F0E4FA48B9002240F239
:104DA0002771D4F82801FCF7C2FF002084F83401F1
:104DB000012540F22661D4F82801FCF78EFFE8B106
:104DC000204602F0CEFA002809DD0E49204602F006
:104DD00038FA0C490978D4F82801FDF73EF8204646
:104DE00002F0BFFA48B9002240F22661D4F8280147
:104DF000FCF79DFF002084F834010125284638BDCA
:104E0000490000204A00002070B50446D4F82C0167
:104E1000FBF7A2FF01283AD1D4F83001FBF7D8FE06
:104E2000D4F82C01FBF7C6FE0021D4F82401FBF7CF
:104E3000DDFE204602F095FA002825DD204602F02E
:104E400090FA142810DC204602F08BFAD4F82411D2
:104E50004860204602F085FA05462A4604F5887126
:104E6000204602F02FFA09E01420D4F824114860FB
:104E7000142204F58871204602F024FA0121D4F8A6
:104E80002401FBF7B3FE02E0002084F8340170BD7A
:104E90002DE9F04104460E461546AAB23146204699
:104EA00002F036FA94F8350178B394F8340160BB17
:104EB000204602F056FA002827DD012084F834014C
:104EC000204602F04EFA142810DC204602F049FA7F
:104ED000D4F824114860204602F043FA07463A46C7
:104EE00004F58871204602F0EDF909E01420D4F8A9
:104EF00024114860142204F58871204602F0E2F97A
:104F00000121D4F82401FBF771FE94F8350130BB80
:104F100094F8340118BB204602F023FA00281EDD65
:104F200040F22661D4F82801FCF7A6FE012240F2E7
:104F30002661D4F82801FCF7FAFE4021D4F82801B4
:104F4000FCF7BEFE012084F834010649204602F039
:104F500078F904490978D4F82801FCF77EFF01208C
:104F6000BDE8F081480000202DE9F04F99B00446DB
:104F70000E4692469B46229F204602F0F6F90446D2
:104F800004F1880002F0F1F9A0F18804002084F80F
:104F9000340184F835B1032084F83601102301224E
:104FA000CE49009004F59E70FFF782FEA0F59E7436
:104FB000032010230122C949009004F5A470FFF7D3
:104FC00077FEA0F5A47400201890179001210846E0
:104FD000FCF7E4F9012E2ED1C148C4F828014FF0A6
:104FE000250894F8350150B1BE48C4F824014FF0AB
:104FF0000E097003C4F82C014010C4F83001BA48FF
:105000000460012F0DD101218803FCF7C7F90121AC
:105010000420FBF7F7FF0620189007201790B34DE8
:105020007DE001218803FCF7B9F9092018900A20D6
:105030001790AA4D73E0022E2FD1AD48C4F8280175
:105040004FF0260894F8350158B1A6483C30C4F812
:1050500024014FF011098004C4F82C014010C4F859
:105060003001A4480460012F0DD101214804FCF750
:1050700075F901210820FBF7C5FF052018900620CF
:1050800017909D4D4BE001214804FCF767F9022081
:10509000189003201790914D41E0032E3FD197487F
:1050A000C4F828014FF0270894F8350158B18D480D
:1050B0002838C4F824014FF00C092020C4F82C0132
:1050C0001020C4F830018E480460012F0DD1012159
:1050D0008804FCF743F901218A48FBF793FF0A2073
:1050E00018900B201790884D19E0112F0ED1012137
:1050F0008804FCF733F9012182482030FBF782FF56
:1051000008201890092017907B4D08E001218804A1
:10511000FCF724F90A2018900B201790734D0120FA
:1051200018230090294610A8189AFFF7C1FD012006
:105130000423009029460DA8179AFFF7B9FD0A220B
:1051400010A904F59E70FAF7F1FF0A220DA904F5E3
:10515000A470FAF7EBFFCDF84CA02898ADF85000FA
:105160002998ADF852002798ADF854000020ADF80A
:1051700058000C20ADF8560013A9D4F82801FCF70C
:10518000FBFD0121D4F82801FCF785FDC4F838A106
:1051900094F83501002840D001228021D4F828015C
:1051A000FCF785FD01210846FCF7C8F8D4F8280172
:1051B000001D019004F588700290102003900120DA
:1051C0000490002005908020069000200790089011
:1051D0000990269820B1012806D002280CD107E0BA
:1051E0004FF440500A900AE04FF400500A9006E055
:1051F0004FF480500A9002E000200A9000BF00BFE8
:1052000000200B9001A9D4F82401FBF7C4FD002174
:10521000D4F82401FBF7EAFC06E0002240F2266104
:10522000D4F82801FCF783FD239830B1012809D078
:1052300002280CD004280FD113E04FF4E060FCF7F3
:1052400073F813E04FF4C060FCF76EF80EE04FF413
:10525000A060FCF769F809E04FF48060FCF764F89F
:1052600004E04FF44070FCF75FF800BF00BF8DF81A
:10527000308024988DF8310025988DF83200012077
:105280008DF833000CA8FCF717F8012240F22551E5
:10529000D4F82801FCF74BFD94F83501D0B18DF816
:1052A000309024988DF8310025988DF832000CA8A4
:1052B000FCF702F8D4F82401006840F00200D4F8AA
:1052C00024110860D4F82401006840F00800D4F8E4
:1052D00024110860204619B0BDE8F08F0008014095
:1052E000003801404400024008000020000C01404A
:1052F000004400400C000020001401400048004021
:105300001000002010001400001001400D4AD0F8D9
:105310002811914203D100210B4A116010E00B4A81
:10532000D0F82811914203D10021094A116007E009
:10533000084AD0F82811914202D10021064A116092
:105340007047000000380140080000200044004081
:105350000C000020004800401000002070B50646F8
:105360000C460025002001E06D1C401C215C00293A
:10537000FAD12A4621463046FFF78AFD304670BDF5
:105380002DE9F04786B0804614461D464FF0000ACE
:1053900000260022134620462946FBF707FA03D2CF
:1053A0004FF0010A85F0004598F8369107E0002299
:1053B000254B20462946FBF773F804460D46B9F104
:1053C0000000A9F1010101F0FF09F0D120462946B2
:1053D000FBF7BFF9074600BF701CC1B20E4698F834
:1053E0003601401C814205D12E20C6F1140101AACC
:1053F00050540CE00A20B7FBF0F100FB1170303084
:10540000C6F1140101AA50540A20B7FBF0F7002F8F
:10541000E2D198F83601801CB042DDDCBAF1010F10
:1054200007D12D21701CC0B20646C0F1140001AA9C
:10543000115406A8811B32464046FFF729FD40461D
:1054400006B0BDE8F087000000002440FEB5064627
:105450000C4600270025002C01DA0127644200BF1A
:10546000681CC5B20A2094FBF0F100FB11403030FB
:10547000C0B2C5F10A010DF801000A2094FBF0F456
:10548000002CEDD1012F07D12D21681CC0B205469B
:10549000C0F10A000DF800100DF10A00411B2A4668
:1054A0003046FFF7F5FC3046FEBDC1F3090323B1DA
:1054B000C1F30903C3F5806319444160027070476A
:1054C0002DE9F041044601206070FCF7FFFC054621
:1054D0000E46D4E902733A4628463146FAF7DAFF17
:1054E000C4E90401C4E90256BDE8F0812DE9FF4F8B
:1054F0008DB00446DDE91F6B1E9D40F26C70854245
:1055000005DD40F63400854201DA4FF4FA6540F2D9
:105510006C70864205DD40F63400864201DA4FF4B5
:10552000FA6640F26C70834505DD40F63400834531
:1055300001DA4FF4FA6B0027B846B946BA4628217B
:105540001D9890FBF1F00990FBF78BF80C90A6F5F5
:10555000FA60FBF794F8BD4ABD4BCDE90601FAF7B6
:105560009FFFCDE90801FBF751F90B90A5F5FA6013
:10557000FBF785F8B54AB64BCDE90601FAF790FF7F
:10558000CDE90801FBF742F90A90D4E904010022B1
:105590001346CDE90801FBF709F904D1AD49AE483E
:1055A000C4E902100DE0FCF791FCCDE90801D4E953
:1055B0000401CDE90601DDE90823FAF76EFFC4E92D
:1055C0000201FCF783FCC4E904010E990B98FAF779
:1055D0004AFE9421085194221159D4F88400FAF714
:1055E00048FEA0210851A1690C98FBF735F91FD29C
:1055F00094210859FBF7C6F8CDE90201D4E902016C
:10560000CDE90001DDE90223FAF74AFFCDE9060101
:105610009C210859FBF7B6F8CDE90401DDE9062322
:10562000FAF797FECDE90801FBF7F0F89C21085145
:105630009C22115988221059FAF71BFEA421085107
:105640009822115994221059FAF70DFE0190FBF798
:1056500099F8CDE90201D4E9020102460B46CDE9F1
:105660000001DDE90201FAF78DFFCDE906018C208A
:10567000005980F000400390FBF784F8CDE9040165
:10568000DDE90623FAF70CFFCDE90801FBF7BEF8C8
:10569000AC210851A4221159A0221059FAF791FD0A
:1056A0000990AC2001590998FAF78BFDB0210851F7
:1056B00094200159982001510F990A98FAF7D3FDC7
:1056C000E062E16AE069FAF7D4FDA063A1690C9891
:1056D000FBF7C2F81CD2E06AFBF754F8CDE90201EF
:1056E000D4E90201CDE90001DDE90223FAF7D8FE91
:1056F000CDE90601606BFBF745F8CDE90401DDE972
:105700000623FAF726FECDE90801FBF77FF8606370
:10571000616B206AFAF7ADFDE063D4E90F01FBF796
:105720009BF801D2216CE163206C80F0004009906D
:10573000E16BFBF791F803D2206C80F00041E1634C
:10574000606A80F0004009901B99FAF792FD60644E
:10575000D4E90E01FAF735FD0990616CFAF731FDD5
:10576000A064E16A2163A16C0C98FAF72AFD8146D6
:10577000A16C0C98FAF725FD0746A16C0C98FAF776
:1057800072FD8046A16C0C98FAF76DFD8246E06AC6
:1057900000F016FE31490990FBF75EF807D9E06A80
:1057A00000F00EFE2D490990FBF756F810D22C4858
:1057B00000902B4B002219462068FEF707FE284A6E
:1057C00003216068FEF758FE099811B0BDE8F08F1C
:1057D00000213846FBF736F800D20027002140466A
:1057E000FBF730F801D24FF0000800214846FBF7E4
:1057F00029F801D24FF0000900215046FBF722F8AA
:1058000001D24FF0000AA1690C98FBF71BF80DD2EA
:10581000A0690090A369194600222068FEF7D6FD12
:105820000321A2696068FEF727FE0CE0CDF800A016
:105830004B46002239462068FEF7C8FD4246032148
:105840006068FEF719FE0120BFE70000B81E85EB77
:1058500051B88E3F7B14AE47E17A843F0000484246
:105860000000F04110B50160426000240461446111
:105870000A4C0464A8231C50094C4467DC231C50C8
:10588000084CC464B4231C5000248464B0231C500E
:10589000C467E4231C50044B836110BD0000A0408A
:1058A0000000F041000048420000A04130B587B040
:1058B00004460D462DB1012300221946A069FDF7CB
:1058C0002BFD0D2006900020019002900390049083
:1058D0000120009006AB2422D021A069FDF78CFBAB
:1058E0000020069001900290039004900120009007
:1058F00006AB6A22D021A069FDF77EFB022006904C
:10590000002001900290039004900120009006ABCB
:105910003722D021A069FDF76FFBA069FDF744FC99
:1059200010B9002007B030BD45B100230122114657
:10593000A069FDF7F1FC08B90020F3E70120F1E7C9
:105940002DE9FE4381460C46684601F0BBFD206B05
:10595000FAF795FE0746134A134BFAF7A1FD0546E1
:10596000FAF754FF0090606BFAF789FE05460D4A7E
:105970000D4BFAF795FD0746FAF748FF0190A06B2B
:10598000FAF77DFE0546074A074BFAF789FD0746F9
:10599000FAF73CFF02909DE8070089E80700BDE8A0
:1059A000FE830000B3267EDBFF3F7F3F70B50446D9
:1059B00000BFD4E904211046FAF728FF0546FAF79C
:1059C000E1FE70BD014691F82E007047012180F87C
:1059D0002E10704730B587B004460D462DB1012317
:1059E00000221946A069FDF797FC0020069001905F
:1059F0000290039004900120009006AB6B22D0210E
:105A0000A069FDF7F9FA02200690002001900290AB
:105A1000039004900120009006AB3722D021A069AA
:105A2000FDF7EAFA0720069000200190029003900B
:105A300004900120009006AB1922D021A069FDF747
:105A4000DBFA07200690002001900290039004905A
:105A50000120009006AB6A22D021A069FDF7CCFAA4
:105A600006200690002001900290039004900120EF
:105A7000009006AB1A22D021A069FDF7BDFA0020E4
:105A8000069001900290039004900120009006ABD4
:105A90001B22D021A069FDF7AFFA0120069000205B
:105AA00001900290039004900120009006AB1C220C
:105AB000D021A069FDF7A0FAA069FDF775FB0021D0
:105AC0002046FFF7F3FE4DB1002301221146A069E5
:105AD000FDF722FC10B9002007B030BD002084F88B
